{
  "contractName": "Event",
  "abi": [
    {
      "inputs": [],
      "stateMutability": "nonpayable",
      "type": "constructor"
    },
    {
      "inputs": [
        {
          "internalType": "uint256",
          "name": "",
          "type": "uint256"
        }
      ],
      "name": "events",
      "outputs": [
        {
          "internalType": "uint256",
          "name": "id",
          "type": "uint256"
        },
        {
          "internalType": "string",
          "name": "name",
          "type": "string"
        },
        {
          "internalType": "uint256",
          "name": "year",
          "type": "uint256"
        },
        {
          "internalType": "string",
          "name": "organiserName",
          "type": "string"
        }
      ],
      "stateMutability": "view",
      "type": "function",
      "constant": true
    },
    {
      "inputs": [],
      "name": "iitdh",
      "outputs": [
        {
          "internalType": "address payable",
          "name": "",
          "type": "address"
        }
      ],
      "stateMutability": "view",
      "type": "function",
      "constant": true
    },
    {
      "inputs": [
        {
          "internalType": "string",
          "name": "_name",
          "type": "string"
        },
        {
          "internalType": "uint256",
          "name": "_year",
          "type": "uint256"
        },
        {
          "internalType": "string",
          "name": "_organiser",
          "type": "string"
        }
      ],
      "name": "createEvent",
      "outputs": [],
      "stateMutability": "nonpayable",
      "type": "function"
    },
    {
      "inputs": [],
      "name": "getEvents",
      "outputs": [
        {
          "components": [
            {
              "internalType": "uint256",
              "name": "id",
              "type": "uint256"
            },
            {
              "internalType": "string",
              "name": "name",
              "type": "string"
            },
            {
              "internalType": "uint256",
              "name": "year",
              "type": "uint256"
            },
            {
              "internalType": "string",
              "name": "organiserName",
              "type": "string"
            }
          ],
          "internalType": "struct Event.parsecEvent[]",
          "name": "",
          "type": "tuple[]"
        }
      ],
      "stateMutability": "view",
      "type": "function",
      "constant": true
    }
  ],
  "bytecode": "0x6080604052600060015534801561001557600080fd5b5073dfa86baaa47b5a59c6c41f90efe3bf37e7eaea5c6000806101000a81548173ffffffffffffffffffffffffffffffffffffffff021916908373ffffffffffffffffffffffffffffffffffffffff160217905550610d4b806100796000396000f3fe608060405234801561001057600080fd5b506004361061004c5760003560e01c80630b791430146100515780631ac097a714610084578063404aa8f9146100a257806383844257146100c0575b600080fd5b61006b600480360381019061006691906104de565b6100dc565b60405161007b94939291906105aa565b60405180910390f35b61008c61022c565b604051610099919061063e565b60405180910390f35b6100aa610250565b6040516100b791906107de565b60405180910390f35b6100da60048036038101906100d59190610935565b6103e7565b005b600281815481106100ec57600080fd5b9060005260206000209060040201600091509050806000015490806001018054610115906109ef565b80601f0160208091040260200160405190810160405280929190818152602001828054610141906109ef565b801561018e5780601f106101635761010080835404028352916020019161018e565b820191906000526020600020905b81548152906001019060200180831161017157829003601f168201915b5050505050908060020154908060030180546101a9906109ef565b80601f01602080910402602001604051908101604052809291908181526020018280546101d5906109ef565b80156102225780601f106101f757610100808354040283529160200191610222565b820191906000526020600020905b81548152906001019060200180831161020557829003601f168201915b5050505050905084565b60008054906101000a900473ffffffffffffffffffffffffffffffffffffffff1681565b60606002805480602002602001604051908101604052809291908181526020016000905b828210156103de5783829060005260206000209060040201604051806080016040529081600082015481526020016001820180546102b1906109ef565b80601f01602080910402602001604051908101604052809291908181526020018280546102dd906109ef565b801561032a5780601f106102ff5761010080835404028352916020019161032a565b820191906000526020600020905b81548152906001019060200180831161030d57829003601f168201915b505050505081526020016002820154815260200160038201805461034d906109ef565b80601f0160208091040260200160405190810160405280929190818152602001828054610379906109ef565b80156103c65780601f1061039b576101008083540402835291602001916103c6565b820191906000526020600020905b8154815290600101906020018083116103a957829003601f168201915b50505050508152505081526020019060010190610274565b50505050905090565b600160008154809291906103fa90610a4f565b919050555060026040518060800160405280600154815260200185815260200184815260200183815250908060018154018082558091505060019003906000526020600020906004020160009091909190915060008201518160000155602082015181600101908161046c9190610c43565b5060408201518160020155606082015181600301908161048c9190610c43565b505050505050565b6000604051905090565b600080fd5b600080fd5b6000819050919050565b6104bb816104a8565b81146104c657600080fd5b50565b6000813590506104d8816104b2565b92915050565b6000602082840312156104f4576104f361049e565b5b6000610502848285016104c9565b91505092915050565b610514816104a8565b82525050565b600081519050919050565b600082825260208201905092915050565b60005b83811015610554578082015181840152602081019050610539565b60008484015250505050565b6000601f19601f8301169050919050565b600061057c8261051a565b6105868185610525565b9350610596818560208601610536565b61059f81610560565b840191505092915050565b60006080820190506105bf600083018761050b565b81810360208301526105d18186610571565b90506105e0604083018561050b565b81810360608301526105f28184610571565b905095945050505050565b600073ffffffffffffffffffffffffffffffffffffffff82169050919050565b6000610628826105fd565b9050919050565b6106388161061d565b82525050565b6000602082019050610653600083018461062f565b92915050565b600081519050919050565b600082825260208201905092915050565b6000819050602082019050919050565b61068e816104a8565b82525050565b600082825260208201905092915050565b60006106b08261051a565b6106ba8185610694565b93506106ca818560208601610536565b6106d381610560565b840191505092915050565b60006080830160008301516106f66000860182610685565b506020830151848203602086015261070e82826106a5565b91505060408301516107236040860182610685565b506060830151848203606086015261073b82826106a5565b9150508091505092915050565b600061075483836106de565b905092915050565b6000602082019050919050565b600061077482610659565b61077e8185610664565b93508360208202850161079085610675565b8060005b858110156107cc57848403895281516107ad8582610748565b94506107b88361075c565b925060208a01995050600181019050610794565b50829750879550505050505092915050565b600060208201905081810360008301526107f88184610769565b905092915050565b600080fd5b600080fd5b7f4e487b7100000000000000000000000000000000000000000000000000000000600052604160045260246000fd5b61084282610560565b810181811067ffffffffffffffff821117156108615761086061080a565b5b80604052505050565b6000610874610494565b90506108808282610839565b919050565b600067ffffffffffffffff8211156108a05761089f61080a565b5b6108a982610560565b9050602081019050919050565b82818337600083830152505050565b60006108d86108d384610885565b61086a565b9050828152602081018484840111156108f4576108f3610805565b5b6108ff8482856108b6565b509392505050565b600082601f83011261091c5761091b610800565b5b813561092c8482602086016108c5565b91505092915050565b60008060006060848603121561094e5761094d61049e565b5b600084013567ffffffffffffffff81111561096c5761096b6104a3565b5b61097886828701610907565b9350506020610989868287016104c9565b925050604084013567ffffffffffffffff8111156109aa576109a96104a3565b5b6109b686828701610907565b9150509250925092565b7f4e487b7100000000000000000000000000000000000000000000000000000000600052602260045260246000fd5b60006002820490506001821680610a0757607f821691505b602082108103610a1a57610a196109c0565b5b50919050565b7f4e487b7100000000000000000000000000000000000000000000000000000000600052601160045260246000fd5b6000610a5a826104a8565b91507fffffffffffffffffffffffffffffffffffffffffffffffffffffffffffffffff8203610a8c57610a8b610a20565b5b600182019050919050565b60008190508160005260206000209050919050565b60006020601f8301049050919050565b600082821b905092915050565b600060088302610af97fffffffffffffffffffffffffffffffffffffffffffffffffffffffffffffffff82610abc565b610b038683610abc565b95508019841693508086168417925050509392505050565b6000819050919050565b6000610b40610b3b610b36846104a8565b610b1b565b6104a8565b9050919050565b6000819050919050565b610b5a83610b25565b610b6e610b6682610b47565b848454610ac9565b825550505050565b600090565b610b83610b76565b610b8e818484610b51565b505050565b5b81811015610bb257610ba7600082610b7b565b600181019050610b94565b5050565b601f821115610bf757610bc881610a97565b610bd184610aac565b81016020851015610be0578190505b610bf4610bec85610aac565b830182610b93565b50505b505050565b600082821c905092915050565b6000610c1a60001984600802610bfc565b1980831691505092915050565b6000610c338383610c09565b9150826002028217905092915050565b610c4c8261051a565b67ffffffffffffffff811115610c6557610c6461080a565b5b610c6f82546109ef565b610c7a828285610bb6565b600060209050601f831160018114610cad5760008415610c9b578287015190505b610ca58582610c27565b865550610d0d565b601f198416610cbb86610a97565b60005b82811015610ce357848901518255600182019150602085019450602081019050610cbe565b86831015610d005784890151610cfc601f891682610c09565b8355505b6001600288020188555050505b50505050505056fea26469706673582212205111bcb93281aa55d2a000b2ff35a26fb4587b662ec98c4272b36166873aeb4664736f6c63430008130033",
  "immutableReferences": {},
  "source": "//SPDX-License-Identifier: MIT\npragma solidity ^0.8.0;\n\ncontract Event {\n    //dealers\n    address payable public iitdh;\n\n    //events\n    struct parsecEvent {\n        uint id;\n        string name;\n        uint year;\n        string organiserName;\n    }\n\n    //all events till date\n    uint eventCount = 0;\n    parsecEvent[] public events;\n\n    constructor() {\n        iitdh = payable(0xdFa86baaa47B5A59c6C41F90efE3bF37E7EAEa5C);\n    }\n\n    modifier onlyIITDh() {\n        require(iitdh == 0xdFa86baaa47B5A59c6C41F90efE3bF37E7EAEa5C);\n        _;\n    }\n\n    function createEvent(\n        string memory _name,\n        uint _year,\n        string memory _organiser\n    ) public {\n        eventCount++;\n        events.push(parsecEvent(eventCount, _name, _year, _organiser));\n    }\n\n    function getEvents() public view returns (parsecEvent[] memory) {\n        return events;\n    }\n}\n",
  "sourcePath": "D:\\Programs\\xampp\\htdocs\\GitHub\\parsecfunds\\src\\contracts\\Event.sol",
  "compiler": {
    "name": "solc",
    "version": "0.8.19+commit.7dd6d404.Emscripten.clang"
  },
  "schemaVersion": "3.4.13",
  "updatedAt": "2023-04-09T05:28:39.703Z",
  "networkType": "ethereum",
  "devdoc": {
    "kind": "dev",
    "methods": {},
    "version": 1
  },
  "userdoc": {
    "kind": "user",
    "methods": {},
    "version": 1
  }
}