{
  "contractName": "funds",
  "abi": [
    {
      "inputs": [
        {
          "internalType": "string",
          "name": "_name",
          "type": "string"
        },
        {
          "internalType": "uint256",
          "name": "_year",
          "type": "uint256"
        },
        {
          "internalType": "string",
          "name": "_organiser",
          "type": "string"
        }
      ],
      "name": "createEvent",
      "outputs": [],
      "stateMutability": "nonpayable",
      "type": "function"
    },
    {
      "inputs": [
        {
          "internalType": "uint256",
          "name": "",
          "type": "uint256"
        },
        {
          "internalType": "uint256",
          "name": "",
          "type": "uint256"
        }
      ],
      "name": "eventSponsors",
      "outputs": [
        {
          "internalType": "address",
          "name": "sponsor",
          "type": "address"
        },
        {
          "internalType": "uint256",
          "name": "timestamp",
          "type": "uint256"
        },
        {
          "internalType": "uint256",
          "name": "amount",
          "type": "uint256"
        }
      ],
      "stateMutability": "view",
      "type": "function",
      "constant": true
    },
    {
      "inputs": [
        {
          "internalType": "uint256",
          "name": "",
          "type": "uint256"
        }
      ],
      "name": "events",
      "outputs": [
        {
          "internalType": "uint256",
          "name": "id",
          "type": "uint256"
        },
        {
          "internalType": "string",
          "name": "name",
          "type": "string"
        },
        {
          "internalType": "uint256",
          "name": "year",
          "type": "uint256"
        },
        {
          "internalType": "string",
          "name": "organiserName",
          "type": "string"
        }
      ],
      "stateMutability": "view",
      "type": "function",
      "constant": true
    },
    {
      "inputs": [],
      "name": "getEvents",
      "outputs": [
        {
          "components": [
            {
              "internalType": "uint256",
              "name": "id",
              "type": "uint256"
            },
            {
              "internalType": "string",
              "name": "name",
              "type": "string"
            },
            {
              "internalType": "uint256",
              "name": "year",
              "type": "uint256"
            },
            {
              "internalType": "string",
              "name": "organiserName",
              "type": "string"
            }
          ],
          "internalType": "struct Event.parsecEvent[]",
          "name": "",
          "type": "tuple[]"
        }
      ],
      "stateMutability": "view",
      "type": "function",
      "constant": true
    },
    {
      "inputs": [],
      "name": "iitdh",
      "outputs": [
        {
          "internalType": "address payable",
          "name": "",
          "type": "address"
        }
      ],
      "stateMutability": "view",
      "type": "function",
      "constant": true
    },
    {
      "inputs": [
        {
          "internalType": "address",
          "name": "",
          "type": "address"
        },
        {
          "internalType": "uint256",
          "name": "",
          "type": "uint256"
        }
      ],
      "name": "sponsorsContributions",
      "outputs": [
        {
          "internalType": "uint256",
          "name": "",
          "type": "uint256"
        }
      ],
      "stateMutability": "view",
      "type": "function",
      "constant": true
    },
    {
      "inputs": [
        {
          "internalType": "address",
          "name": "_account",
          "type": "address"
        },
        {
          "internalType": "uint256",
          "name": "_eventID",
          "type": "uint256"
        },
        {
          "internalType": "uint256",
          "name": "_amount",
          "type": "uint256"
        }
      ],
      "name": "sponsorThis",
      "outputs": [],
      "stateMutability": "payable",
      "type": "function",
      "payable": true
    },
    {
      "inputs": [
        {
          "internalType": "address payable",
          "name": "_recvAddr",
          "type": "address"
        }
      ],
      "name": "payIITDh",
      "outputs": [],
      "stateMutability": "payable",
      "type": "function",
      "payable": true
    },
    {
      "inputs": [
        {
          "internalType": "address",
          "name": "_account",
          "type": "address"
        }
      ],
      "name": "gettransactionHistory",
      "outputs": [
        {
          "components": [
            {
              "internalType": "uint256",
              "name": "id",
              "type": "uint256"
            },
            {
              "internalType": "string",
              "name": "name",
              "type": "string"
            },
            {
              "internalType": "uint256",
              "name": "year",
              "type": "uint256"
            },
            {
              "internalType": "string",
              "name": "organiserName",
              "type": "string"
            }
          ],
          "internalType": "struct Event.parsecEvent[]",
          "name": "",
          "type": "tuple[]"
        }
      ],
      "stateMutability": "view",
      "type": "function",
      "constant": true
    }
  ],
  "bytecode": "0x6080604052600060015534801561001557600080fd5b50336000806101000a81548173ffffffffffffffffffffffffffffffffffffffff021916908373ffffffffffffffffffffffffffffffffffffffff160217905550611562806100656000396000f3fe6080604052600436106100865760003560e01c8063404aa8f911610059578063404aa8f91461014f5780634c6c5b581461017a5780638384425714610196578063c3d24bfc146101bf578063c9b1211b146101fc57610086565b8063097430561461008b5780630b791430146100c85780631ac097a7146101085780633932125814610133575b600080fd5b34801561009757600080fd5b506100b260048036038101906100ad9190610b2c565b61023b565b6040516100bf9190610b7b565b60405180910390f35b3480156100d457600080fd5b506100ef60048036038101906100ea9190610b96565b61026c565b6040516100ff9493929190610c53565b60405180910390f35b34801561011457600080fd5b5061011d6103bc565b60405161012a9190610cc7565b60405180910390f35b61014d60048036038101906101489190610d0e565b6103e0565b005b34801561015b57600080fd5b5061016461041d565b6040516101719190610ec0565b60405180910390f35b610194600480360381019061018f9190610ee2565b6105b4565b005b3480156101a257600080fd5b506101bd60048036038101906101b8919061106a565b61071c565b005b3480156101cb57600080fd5b506101e660048036038101906101e191906110f5565b6107c9565b6040516101f39190610ec0565b60405180910390f35b34801561020857600080fd5b50610223600480360381019061021e9190611122565b610a14565b60405161023293929190611171565b60405180910390f35b6005602052816000526040600020818154811061025757600080fd5b90600052602060002001600091509150505481565b6002818154811061027c57600080fd5b90600052602060002090600402016000915090508060000154908060010180546102a5906111d7565b80601f01602080910402602001604051908101604052809291908181526020018280546102d1906111d7565b801561031e5780601f106102f35761010080835404028352916020019161031e565b820191906000526020600020905b81548152906001019060200180831161030157829003601f168201915b505050505090806002015490806003018054610339906111d7565b80601f0160208091040260200160405190810160405280929190818152602001828054610365906111d7565b80156103b25780601f10610387576101008083540402835291602001916103b2565b820191906000526020600020905b81548152906001019060200180831161039557829003601f168201915b5050505050905084565b60008054906101000a900473ffffffffffffffffffffffffffffffffffffffff1681565b60008173ffffffffffffffffffffffffffffffffffffffff166108fc349081150290604051600060405180830381858888f1935050505090505050565b60606002805480602002602001604051908101604052809291908181526020016000905b828210156105ab57838290600052602060002090600402016040518060800160405290816000820154815260200160018201805461047e906111d7565b80601f01602080910402602001604051908101604052809291908181526020018280546104aa906111d7565b80156104f75780601f106104cc576101008083540402835291602001916104f7565b820191906000526020600020905b8154815290600101906020018083116104da57829003601f168201915b505050505081526020016002820154815260200160038201805461051a906111d7565b80601f0160208091040260200160405190810160405280929190818152602001828054610546906111d7565b80156105935780601f1061056857610100808354040283529160200191610593565b820191906000526020600020905b81548152906001019060200180831161057657829003601f168201915b50505050508152505081526020019060010190610441565b50505050905090565b6105bc610a7b565b6004600083815260200190815260200160002060405180606001604052808573ffffffffffffffffffffffffffffffffffffffff168152602001600354815260200134815250908060018154018082558091505060019003906000526020600020906003020160009091909190915060008201518160000160006101000a81548173ffffffffffffffffffffffffffffffffffffffff021916908373ffffffffffffffffffffffffffffffffffffffff16021790555060208201518160010155604082015181600201555050600560008473ffffffffffffffffffffffffffffffffffffffff1673ffffffffffffffffffffffffffffffffffffffff16815260200190815260200160002082908060018154018082558091505060019003906000526020600020016000909190919091505561071760008054906101000a900473ffffffffffffffffffffffffffffffffffffffff166103e0565b505050565b6001600081548092919061072f90611237565b91905055506002604051806080016040528060015481526020018581526020018481526020018381525090806001815401808255809150506001900390600052602060002090600402016000909190919091506000820151816000015560208201518160010190816107a1919061142b565b506040820151816002015560608201518160030190816107c1919061142b565b505050505050565b60608060005b600560008573ffffffffffffffffffffffffffffffffffffffff1673ffffffffffffffffffffffffffffffffffffffff16815260200190815260200160002080549050811015610a0a576002600560008673ffffffffffffffffffffffffffffffffffffffff1673ffffffffffffffffffffffffffffffffffffffff168152602001908152602001600020828154811061086c5761086b6114fd565b5b906000526020600020015481548110610888576108876114fd565b5b9060005260206000209060040201604051806080016040529081600082015481526020016001820180546108bb906111d7565b80601f01602080910402602001604051908101604052809291908181526020018280546108e7906111d7565b80156109345780601f1061090957610100808354040283529160200191610934565b820191906000526020600020905b81548152906001019060200180831161091757829003601f168201915b5050505050815260200160028201548152602001600382018054610957906111d7565b80601f0160208091040260200160405190810160405280929190818152602001828054610983906111d7565b80156109d05780601f106109a5576101008083540402835291602001916109d0565b820191906000526020600020905b8154815290600101906020018083116109b357829003601f168201915b5050505050815250508282815181106109ec576109eb6114fd565b5b60200260200101819052508080610a0290611237565b9150506107cf565b5080915050919050565b60046020528160005260406000208181548110610a3057600080fd5b9060005260206000209060030201600091509150508060000160009054906101000a900473ffffffffffffffffffffffffffffffffffffffff16908060010154908060020154905083565b42600381905550565b6000604051905090565b600080fd5b600080fd5b600073ffffffffffffffffffffffffffffffffffffffff82169050919050565b6000610ac382610a98565b9050919050565b610ad381610ab8565b8114610ade57600080fd5b50565b600081359050610af081610aca565b92915050565b6000819050919050565b610b0981610af6565b8114610b1457600080fd5b50565b600081359050610b2681610b00565b92915050565b60008060408385031215610b4357610b42610a8e565b5b6000610b5185828601610ae1565b9250506020610b6285828601610b17565b9150509250929050565b610b7581610af6565b82525050565b6000602082019050610b906000830184610b6c565b92915050565b600060208284031215610bac57610bab610a8e565b5b6000610bba84828501610b17565b91505092915050565b600081519050919050565b600082825260208201905092915050565b60005b83811015610bfd578082015181840152602081019050610be2565b60008484015250505050565b6000601f19601f8301169050919050565b6000610c2582610bc3565b610c2f8185610bce565b9350610c3f818560208601610bdf565b610c4881610c09565b840191505092915050565b6000608082019050610c686000830187610b6c565b8181036020830152610c7a8186610c1a565b9050610c896040830185610b6c565b8181036060830152610c9b8184610c1a565b905095945050505050565b6000610cb182610a98565b9050919050565b610cc181610ca6565b82525050565b6000602082019050610cdc6000830184610cb8565b92915050565b610ceb81610ca6565b8114610cf657600080fd5b50565b600081359050610d0881610ce2565b92915050565b600060208284031215610d2457610d23610a8e565b5b6000610d3284828501610cf9565b91505092915050565b600081519050919050565b600082825260208201905092915050565b6000819050602082019050919050565b610d7081610af6565b82525050565b600082825260208201905092915050565b6000610d9282610bc3565b610d9c8185610d76565b9350610dac818560208601610bdf565b610db581610c09565b840191505092915050565b6000608083016000830151610dd86000860182610d67565b5060208301518482036020860152610df08282610d87565b9150506040830151610e056040860182610d67565b5060608301518482036060860152610e1d8282610d87565b9150508091505092915050565b6000610e368383610dc0565b905092915050565b6000602082019050919050565b6000610e5682610d3b565b610e608185610d46565b935083602082028501610e7285610d57565b8060005b85811015610eae5784840389528151610e8f8582610e2a565b9450610e9a83610e3e565b925060208a01995050600181019050610e76565b50829750879550505050505092915050565b60006020820190508181036000830152610eda8184610e4b565b905092915050565b600080600060608486031215610efb57610efa610a8e565b5b6000610f0986828701610ae1565b9350506020610f1a86828701610b17565b9250506040610f2b86828701610b17565b9150509250925092565b600080fd5b600080fd5b7f4e487b7100000000000000000000000000000000000000000000000000000000600052604160045260246000fd5b610f7782610c09565b810181811067ffffffffffffffff82111715610f9657610f95610f3f565b5b80604052505050565b6000610fa9610a84565b9050610fb58282610f6e565b919050565b600067ffffffffffffffff821115610fd557610fd4610f3f565b5b610fde82610c09565b9050602081019050919050565b82818337600083830152505050565b600061100d61100884610fba565b610f9f565b90508281526020810184848401111561102957611028610f3a565b5b611034848285610feb565b509392505050565b600082601f83011261105157611050610f35565b5b8135611061848260208601610ffa565b91505092915050565b60008060006060848603121561108357611082610a8e565b5b600084013567ffffffffffffffff8111156110a1576110a0610a93565b5b6110ad8682870161103c565b93505060206110be86828701610b17565b925050604084013567ffffffffffffffff8111156110df576110de610a93565b5b6110eb8682870161103c565b9150509250925092565b60006020828403121561110b5761110a610a8e565b5b600061111984828501610ae1565b91505092915050565b6000806040838503121561113957611138610a8e565b5b600061114785828601610b17565b925050602061115885828601610b17565b9150509250929050565b61116b81610ab8565b82525050565b60006060820190506111866000830186611162565b6111936020830185610b6c565b6111a06040830184610b6c565b949350505050565b7f4e487b7100000000000000000000000000000000000000000000000000000000600052602260045260246000fd5b600060028204905060018216806111ef57607f821691505b602082108103611202576112016111a8565b5b50919050565b7f4e487b7100000000000000000000000000000000000000000000000000000000600052601160045260246000fd5b600061124282610af6565b91507fffffffffffffffffffffffffffffffffffffffffffffffffffffffffffffffff820361127457611273611208565b5b600182019050919050565b60008190508160005260206000209050919050565b60006020601f8301049050919050565b600082821b905092915050565b6000600883026112e17fffffffffffffffffffffffffffffffffffffffffffffffffffffffffffffffff826112a4565b6112eb86836112a4565b95508019841693508086168417925050509392505050565b6000819050919050565b600061132861132361131e84610af6565b611303565b610af6565b9050919050565b6000819050919050565b6113428361130d565b61135661134e8261132f565b8484546112b1565b825550505050565b600090565b61136b61135e565b611376818484611339565b505050565b5b8181101561139a5761138f600082611363565b60018101905061137c565b5050565b601f8211156113df576113b08161127f565b6113b984611294565b810160208510156113c8578190505b6113dc6113d485611294565b83018261137b565b50505b505050565b600082821c905092915050565b6000611402600019846008026113e4565b1980831691505092915050565b600061141b83836113f1565b9150826002028217905092915050565b61143482610bc3565b67ffffffffffffffff81111561144d5761144c610f3f565b5b61145782546111d7565b61146282828561139e565b600060209050601f8311600181146114955760008415611483578287015190505b61148d858261140f565b8655506114f5565b601f1984166114a38661127f565b60005b828110156114cb578489015182556001820191506020850194506020810190506114a6565b868310156114e857848901516114e4601f8916826113f1565b8355505b6001600288020188555050505b505050505050565b7f4e487b7100000000000000000000000000000000000000000000000000000000600052603260045260246000fdfea26469706673582212203deb40a2405cf5aa33e4212ff84ddae40ccdf58537835b25f04424e0f56a9e7264736f6c63430008130033",
  "immutableReferences": {},
  "source": "//SPDX-License-Identifier: MIT\npragma solidity ^0.8.0;\n\nimport {Event} from \"./Event.sol\";\n\n//sponsor - sendMoney, avalaibleBalance, transactionHistory\ncontract funds is Event {\n    // Each fund needs a sponsor, a timestamp, and amount funded.\n    struct Funds {\n        address sponsor;\n        uint timestamp;\n        uint amount;\n    }\n\n    // Set `lastUpdated` to `now`\n    uint lastUpdated;\n\n    function updateTimestamp() private {\n        lastUpdated = block.timestamp;\n    }\n\n    // event id to all funds it got\n    mapping(uint => Funds[]) public eventSponsors;\n\n    //sponsor contributed to which events (IDs) funded\n    mapping(address => uint[]) public sponsorsContributions;\n\n    //update the maps and pay the money\n    function sponsorThis(\n        address _account,\n        uint _eventID,\n        uint _amount\n    ) external payable {\n        updateTimestamp();\n            eventSponsors[_eventID].push(Funds(_account, lastUpdated, msg.value));\n            sponsorsContributions[_account].push(_eventID);\n            payIITDh(iitdh);\n    }\n\n    function payIITDh(address payable _recvAddr) public payable {\n        bool sent = _recvAddr.send(msg.value);\n        if (sent) {}\n        //require(sent, \"Failed to send Ether\");\n        // payable(iitdh).transfer(_amount);\n    }\n\n    //all events funded by one sponsor\n    function gettransactionHistory(\n        address _account\n    ) public view returns (parsecEvent[] memory) {\n        parsecEvent[] memory myFundedEvents;\n        for (uint i = 0; i < sponsorsContributions[_account].length; i++) {\n            myFundedEvents[i] = events[sponsorsContributions[_account][i]];\n        }\n        return myFundedEvents;\n    }\n}\n",
  "sourcePath": "D:\\Programs\\xampp\\htdocs\\GitHub\\parsecfunds\\src\\contracts\\funds.sol",
  "compiler": {
    "name": "solc",
    "version": "0.8.19+commit.7dd6d404.Emscripten.clang"
  },
  "schemaVersion": "3.4.13",
  "updatedAt": "2023-04-06T21:30:55.592Z",
  "networkType": "ethereum",
  "devdoc": {
    "kind": "dev",
    "methods": {},
    "version": 1
  },
  "userdoc": {
    "kind": "user",
    "methods": {},
    "version": 1
  }
}