{
  "contractName": "funds",
  "abi": [
    {
      "inputs": [
        {
          "internalType": "string",
          "name": "_name",
          "type": "string"
        },
        {
          "internalType": "uint256",
          "name": "_year",
          "type": "uint256"
        },
        {
          "internalType": "string",
          "name": "_organiser",
          "type": "string"
        }
      ],
      "name": "createEvent",
      "outputs": [],
      "stateMutability": "nonpayable",
      "type": "function"
    },
    {
      "inputs": [
        {
          "internalType": "uint256",
          "name": "",
          "type": "uint256"
        },
        {
          "internalType": "uint256",
          "name": "",
          "type": "uint256"
        }
      ],
      "name": "eventSponsors",
      "outputs": [
        {
          "internalType": "address",
          "name": "sponsor",
          "type": "address"
        },
        {
          "internalType": "uint256",
          "name": "timestamp",
          "type": "uint256"
        },
        {
          "internalType": "uint256",
          "name": "amount",
          "type": "uint256"
        }
      ],
      "stateMutability": "view",
      "type": "function",
      "constant": true
    },
    {
      "inputs": [
        {
          "internalType": "uint256",
          "name": "",
          "type": "uint256"
        }
      ],
      "name": "events",
      "outputs": [
        {
          "internalType": "uint256",
          "name": "id",
          "type": "uint256"
        },
        {
          "internalType": "string",
          "name": "name",
          "type": "string"
        },
        {
          "internalType": "uint256",
          "name": "year",
          "type": "uint256"
        },
        {
          "internalType": "string",
          "name": "organiserName",
          "type": "string"
        }
      ],
      "stateMutability": "view",
      "type": "function",
      "constant": true
    },
    {
      "inputs": [],
      "name": "getEvents",
      "outputs": [
        {
          "components": [
            {
              "internalType": "uint256",
              "name": "id",
              "type": "uint256"
            },
            {
              "internalType": "string",
              "name": "name",
              "type": "string"
            },
            {
              "internalType": "uint256",
              "name": "year",
              "type": "uint256"
            },
            {
              "internalType": "string",
              "name": "organiserName",
              "type": "string"
            }
          ],
          "internalType": "struct Event.parsecEvent[]",
          "name": "",
          "type": "tuple[]"
        }
      ],
      "stateMutability": "view",
      "type": "function",
      "constant": true
    },
    {
      "inputs": [],
      "name": "iitdh",
      "outputs": [
        {
          "internalType": "address payable",
          "name": "",
          "type": "address"
        }
      ],
      "stateMutability": "view",
      "type": "function",
      "constant": true
    },
    {
      "inputs": [
        {
          "internalType": "address",
          "name": "",
          "type": "address"
        },
        {
          "internalType": "uint256",
          "name": "",
          "type": "uint256"
        }
      ],
      "name": "sponsorsContributions",
      "outputs": [
        {
          "internalType": "uint256",
          "name": "",
          "type": "uint256"
        }
      ],
      "stateMutability": "view",
      "type": "function",
      "constant": true
    },
    {
      "inputs": [
        {
          "internalType": "address",
          "name": "_account",
          "type": "address"
        },
        {
          "internalType": "uint256",
          "name": "_eventID",
          "type": "uint256"
        },
        {
          "internalType": "uint256",
          "name": "_amount",
          "type": "uint256"
        }
      ],
      "name": "sponsorThis",
      "outputs": [],
      "stateMutability": "payable",
      "type": "function",
      "payable": true
    },
    {
      "inputs": [
        {
          "internalType": "address payable",
          "name": "_recvAddr",
          "type": "address"
        }
      ],
      "name": "payIITDh",
      "outputs": [],
      "stateMutability": "payable",
      "type": "function",
      "payable": true
    },
    {
      "inputs": [
        {
          "internalType": "address",
          "name": "_account",
          "type": "address"
        }
      ],
      "name": "gettransactionHistory",
      "outputs": [
        {
          "components": [
            {
              "internalType": "uint256",
              "name": "id",
              "type": "uint256"
            },
            {
              "internalType": "string",
              "name": "name",
              "type": "string"
            },
            {
              "internalType": "uint256",
              "name": "year",
              "type": "uint256"
            },
            {
              "internalType": "string",
              "name": "organiserName",
              "type": "string"
            }
          ],
          "internalType": "struct Event.parsecEvent[]",
          "name": "",
          "type": "tuple[]"
        }
      ],
      "stateMutability": "view",
      "type": "function",
      "constant": true
    }
  ],
  "bytecode": "0x6080604052600060015534801561001557600080fd5b5073dfa86baaa47b5a59c6c41f90efe3bf37e7eaea5c6000806101000a81548173ffffffffffffffffffffffffffffffffffffffff021916908373ffffffffffffffffffffffffffffffffffffffff16021790555061162f806100796000396000f3fe6080604052600436106100865760003560e01c8063404aa8f911610059578063404aa8f91461014f5780634c6c5b581461017a5780638384425714610196578063c3d24bfc146101bf578063c9b1211b146101fc57610086565b8063097430561461008b5780630b791430146100c85780631ac097a7146101085780633932125814610133575b600080fd5b34801561009757600080fd5b506100b260048036038101906100ad9190610b8d565b61023b565b6040516100bf9190610bdc565b60405180910390f35b3480156100d457600080fd5b506100ef60048036038101906100ea9190610bf7565b61026c565b6040516100ff9493929190610cb4565b60405180910390f35b34801561011457600080fd5b5061011d6103bc565b60405161012a9190610d28565b60405180910390f35b61014d60048036038101906101489190610d6f565b6103e0565b005b34801561015b57600080fd5b5061016461042c565b6040516101719190610f21565b60405180910390f35b610194600480360381019061018f9190610f43565b6105c3565b005b3480156101a257600080fd5b506101bd60048036038101906101b891906110cb565b61077d565b005b3480156101cb57600080fd5b506101e660048036038101906101e19190611156565b61082a565b6040516101f39190610f21565b60405180910390f35b34801561020857600080fd5b50610223600480360381019061021e9190611183565b610a75565b604051610232939291906111d2565b60405180910390f35b6005602052816000526040600020818154811061025757600080fd5b90600052602060002001600091509150505481565b6002818154811061027c57600080fd5b90600052602060002090600402016000915090508060000154908060010180546102a590611238565b80601f01602080910402602001604051908101604052809291908181526020018280546102d190611238565b801561031e5780601f106102f35761010080835404028352916020019161031e565b820191906000526020600020905b81548152906001019060200180831161030157829003601f168201915b50505050509080600201549080600301805461033990611238565b80601f016020809104026020016040519081016040528092919081815260200182805461036590611238565b80156103b25780601f10610387576101008083540402835291602001916103b2565b820191906000526020600020905b81548152906001019060200180831161039557829003601f168201915b5050505050905084565b60008054906101000a900473ffffffffffffffffffffffffffffffffffffffff1681565b60008173ffffffffffffffffffffffffffffffffffffffff166108fc349081150290604051600060405180830381858888f193505050509050801561042857610427610adc565b5b5050565b60606002805480602002602001604051908101604052809291908181526020016000905b828210156105ba57838290600052602060002090600402016040518060800160405290816000820154815260200160018201805461048d90611238565b80601f01602080910402602001604051908101604052809291908181526020018280546104b990611238565b80156105065780601f106104db57610100808354040283529160200191610506565b820191906000526020600020905b8154815290600101906020018083116104e957829003601f168201915b505050505081526020016002820154815260200160038201805461052990611238565b80601f016020809104026020016040519081016040528092919081815260200182805461055590611238565b80156105a25780601f10610577576101008083540402835291602001916105a2565b820191906000526020600020905b81548152906001019060200180831161058557829003601f168201915b50505050508152505081526020019060010190610450565b50505050905090565b343373ffffffffffffffffffffffffffffffffffffffff1631101561061d576040517f08c379a0000000000000000000000000000000000000000000000000000000008152600401610614906112b5565b60405180910390fd5b6004600083815260200190815260200160002060405180606001604052808573ffffffffffffffffffffffffffffffffffffffff168152602001600354815260200134815250908060018154018082558091505060019003906000526020600020906003020160009091909190915060008201518160000160006101000a81548173ffffffffffffffffffffffffffffffffffffffff021916908373ffffffffffffffffffffffffffffffffffffffff16021790555060208201518160010155604082015181600201555050600560008473ffffffffffffffffffffffffffffffffffffffff1673ffffffffffffffffffffffffffffffffffffffff16815260200190815260200160002082908060018154018082558091505060019003906000526020600020016000909190919091505561077860008054906101000a900473ffffffffffffffffffffffffffffffffffffffff166103e0565b505050565b6001600081548092919061079090611304565b919050555060026040518060800160405280600154815260200185815260200184815260200183815250908060018154018082558091505060019003906000526020600020906004020160009091909190915060008201518160000155602082015181600101908161080291906114f8565b5060408201518160020155606082015181600301908161082291906114f8565b505050505050565b60608060005b600560008573ffffffffffffffffffffffffffffffffffffffff1673ffffffffffffffffffffffffffffffffffffffff16815260200190815260200160002080549050811015610a6b576002600560008673ffffffffffffffffffffffffffffffffffffffff1673ffffffffffffffffffffffffffffffffffffffff16815260200190815260200160002082815481106108cd576108cc6115ca565b5b9060005260206000200154815481106108e9576108e86115ca565b5b90600052602060002090600402016040518060800160405290816000820154815260200160018201805461091c90611238565b80601f016020809104026020016040519081016040528092919081815260200182805461094890611238565b80156109955780601f1061096a57610100808354040283529160200191610995565b820191906000526020600020905b81548152906001019060200180831161097857829003601f168201915b50505050508152602001600282015481526020016003820180546109b890611238565b80601f01602080910402602001604051908101604052809291908181526020018280546109e490611238565b8015610a315780601f10610a0657610100808354040283529160200191610a31565b820191906000526020600020905b815481529060010190602001808311610a1457829003601f168201915b505050505081525050828281518110610a4d57610a4c6115ca565b5b60200260200101819052508080610a6390611304565b915050610830565b5080915050919050565b60046020528160005260406000208181548110610a9157600080fd5b9060005260206000209060030201600091509150508060000160009054906101000a900473ffffffffffffffffffffffffffffffffffffffff16908060010154908060020154905083565b42600381905550565b6000604051905090565b600080fd5b600080fd5b600073ffffffffffffffffffffffffffffffffffffffff82169050919050565b6000610b2482610af9565b9050919050565b610b3481610b19565b8114610b3f57600080fd5b50565b600081359050610b5181610b2b565b92915050565b6000819050919050565b610b6a81610b57565b8114610b7557600080fd5b50565b600081359050610b8781610b61565b92915050565b60008060408385031215610ba457610ba3610aef565b5b6000610bb285828601610b42565b9250506020610bc385828601610b78565b9150509250929050565b610bd681610b57565b82525050565b6000602082019050610bf16000830184610bcd565b92915050565b600060208284031215610c0d57610c0c610aef565b5b6000610c1b84828501610b78565b91505092915050565b600081519050919050565b600082825260208201905092915050565b60005b83811015610c5e578082015181840152602081019050610c43565b60008484015250505050565b6000601f19601f8301169050919050565b6000610c8682610c24565b610c908185610c2f565b9350610ca0818560208601610c40565b610ca981610c6a565b840191505092915050565b6000608082019050610cc96000830187610bcd565b8181036020830152610cdb8186610c7b565b9050610cea6040830185610bcd565b8181036060830152610cfc8184610c7b565b905095945050505050565b6000610d1282610af9565b9050919050565b610d2281610d07565b82525050565b6000602082019050610d3d6000830184610d19565b92915050565b610d4c81610d07565b8114610d5757600080fd5b50565b600081359050610d6981610d43565b92915050565b600060208284031215610d8557610d84610aef565b5b6000610d9384828501610d5a565b91505092915050565b600081519050919050565b600082825260208201905092915050565b6000819050602082019050919050565b610dd181610b57565b82525050565b600082825260208201905092915050565b6000610df382610c24565b610dfd8185610dd7565b9350610e0d818560208601610c40565b610e1681610c6a565b840191505092915050565b6000608083016000830151610e396000860182610dc8565b5060208301518482036020860152610e518282610de8565b9150506040830151610e666040860182610dc8565b5060608301518482036060860152610e7e8282610de8565b9150508091505092915050565b6000610e978383610e21565b905092915050565b6000602082019050919050565b6000610eb782610d9c565b610ec18185610da7565b935083602082028501610ed385610db8565b8060005b85811015610f0f5784840389528151610ef08582610e8b565b9450610efb83610e9f565b925060208a01995050600181019050610ed7565b50829750879550505050505092915050565b60006020820190508181036000830152610f3b8184610eac565b905092915050565b600080600060608486031215610f5c57610f5b610aef565b5b6000610f6a86828701610b42565b9350506020610f7b86828701610b78565b9250506040610f8c86828701610b78565b9150509250925092565b600080fd5b600080fd5b7f4e487b7100000000000000000000000000000000000000000000000000000000600052604160045260246000fd5b610fd882610c6a565b810181811067ffffffffffffffff82111715610ff757610ff6610fa0565b5b80604052505050565b600061100a610ae5565b90506110168282610fcf565b919050565b600067ffffffffffffffff82111561103657611035610fa0565b5b61103f82610c6a565b9050602081019050919050565b82818337600083830152505050565b600061106e6110698461101b565b611000565b90508281526020810184848401111561108a57611089610f9b565b5b61109584828561104c565b509392505050565b600082601f8301126110b2576110b1610f96565b5b81356110c284826020860161105b565b91505092915050565b6000806000606084860312156110e4576110e3610aef565b5b600084013567ffffffffffffffff81111561110257611101610af4565b5b61110e8682870161109d565b935050602061111f86828701610b78565b925050604084013567ffffffffffffffff8111156111405761113f610af4565b5b61114c8682870161109d565b9150509250925092565b60006020828403121561116c5761116b610aef565b5b600061117a84828501610b42565b91505092915050565b6000806040838503121561119a57611199610aef565b5b60006111a885828601610b78565b92505060206111b985828601610b78565b9150509250929050565b6111cc81610b19565b82525050565b60006060820190506111e760008301866111c3565b6111f46020830185610bcd565b6112016040830184610bcd565b949350505050565b7f4e487b7100000000000000000000000000000000000000000000000000000000600052602260045260246000fd5b6000600282049050600182168061125057607f821691505b60208210810361126357611262611209565b5b50919050565b7f496e73756666696369656e742062616c616e636520696e20636f6e7472616374600082015250565b600061129f602083610c2f565b91506112aa82611269565b602082019050919050565b600060208201905081810360008301526112ce81611292565b9050919050565b7f4e487b7100000000000000000000000000000000000000000000000000000000600052601160045260246000fd5b600061130f82610b57565b91507fffffffffffffffffffffffffffffffffffffffffffffffffffffffffffffffff8203611341576113406112d5565b5b600182019050919050565b60008190508160005260206000209050919050565b60006020601f8301049050919050565b600082821b905092915050565b6000600883026113ae7fffffffffffffffffffffffffffffffffffffffffffffffffffffffffffffffff82611371565b6113b88683611371565b95508019841693508086168417925050509392505050565b6000819050919050565b60006113f56113f06113eb84610b57565b6113d0565b610b57565b9050919050565b6000819050919050565b61140f836113da565b61142361141b826113fc565b84845461137e565b825550505050565b600090565b61143861142b565b611443818484611406565b505050565b5b818110156114675761145c600082611430565b600181019050611449565b5050565b601f8211156114ac5761147d8161134c565b61148684611361565b81016020851015611495578190505b6114a96114a185611361565b830182611448565b50505b505050565b600082821c905092915050565b60006114cf600019846008026114b1565b1980831691505092915050565b60006114e883836114be565b9150826002028217905092915050565b61150182610c24565b67ffffffffffffffff81111561151a57611519610fa0565b5b6115248254611238565b61152f82828561146b565b600060209050601f8311600181146115625760008415611550578287015190505b61155a85826114dc565b8655506115c2565b601f1984166115708661134c565b60005b8281101561159857848901518255600182019150602085019450602081019050611573565b868310156115b557848901516115b1601f8916826114be565b8355505b6001600288020188555050505b505050505050565b7f4e487b7100000000000000000000000000000000000000000000000000000000600052603260045260246000fdfea264697066735822122006e7664e88cbf7c5f57a55e38fa1e197970875ba4492eabc61aadfa7b5ca694864736f6c63430008130033",
  "immutableReferences": {},
  "source": "//SPDX-License-Identifier: MIT\npragma solidity ^0.8.0;\n\nimport {Event} from \"./Event.sol\";\n\n//sponsor - sendMoney, avalaibleBalance, transactionHistory\ncontract funds is Event {\n    // Each fund needs a sponsor, a timestamp, and amount funded.\n    struct Funds {\n        address sponsor;\n        uint timestamp;\n        uint amount;\n    }\n\n    // Set `lastUpdated` to `now`\n    uint lastUpdated;\n\n    function updateTimestamp() private {\n        lastUpdated = block.timestamp;\n    }\n\n    // event id to all funds it got\n    mapping(uint => Funds[]) public eventSponsors;\n\n    //sponsor contributed to which events (IDs) funded\n    mapping(address => uint[]) public sponsorsContributions;\n\n    //update the maps and pay the money\n    function sponsorThis(\n        address _account,\n        uint _eventID,\n        uint _amount\n    ) external payable {\n        require(\n            msg.sender.balance >= msg.value,\n            \"Insufficient balance in contract\"\n        );\n        if (_amount == msg.value) {}\n        eventSponsors[_eventID].push(Funds(_account, lastUpdated, msg.value));\n        sponsorsContributions[_account].push(_eventID);\n        payIITDh(Event.iitdh);\n    }\n\n    function payIITDh(address payable _recvAddr) public payable {\n        bool sent = _recvAddr.send(msg.value);\n        if (sent) {\n            updateTimestamp();\n        }\n        //require(sent, \"Failed to send Ether\");\n        // payable(iitdh).transfer(_amount);\n    }\n\n    //all events funded by one sponsor\n    function gettransactionHistory(\n        address _account\n    ) public view returns (parsecEvent[] memory) {\n        parsecEvent[] memory myFundedEvents;\n        for (uint i = 0; i < sponsorsContributions[_account].length; i++) {\n            myFundedEvents[i] = events[sponsorsContributions[_account][i]];\n        }\n        return myFundedEvents;\n    }\n}\n",
  "sourcePath": "D:\\Programs\\xampp\\htdocs\\GitHub\\parsecfunds\\src\\contracts\\funds.sol",
  "compiler": {
    "name": "solc",
    "version": "0.8.19+commit.7dd6d404.Emscripten.clang"
  },
  "schemaVersion": "3.4.13",
  "updatedAt": "2023-04-09T05:28:39.712Z",
  "networkType": "ethereum",
  "devdoc": {
    "kind": "dev",
    "methods": {},
    "version": 1
  },
  "userdoc": {
    "kind": "user",
    "methods": {},
    "version": 1
  }
}