{
  "contractName": "funds",
  "abi": [
    {
      "inputs": [
        {
          "internalType": "string",
          "name": "_name",
          "type": "string"
        },
        {
          "internalType": "uint256",
          "name": "_year",
          "type": "uint256"
        },
        {
          "internalType": "string",
          "name": "_organiser",
          "type": "string"
        }
      ],
      "name": "createEvent",
      "outputs": [],
      "stateMutability": "nonpayable",
      "type": "function"
    },
    {
      "inputs": [
        {
          "internalType": "uint256",
          "name": "",
          "type": "uint256"
        },
        {
          "internalType": "uint256",
          "name": "",
          "type": "uint256"
        }
      ],
      "name": "eventSponsors",
      "outputs": [
        {
          "internalType": "address",
          "name": "sponsor",
          "type": "address"
        },
        {
          "internalType": "uint256",
          "name": "timestamp",
          "type": "uint256"
        },
        {
          "internalType": "uint256",
          "name": "amount",
          "type": "uint256"
        }
      ],
      "stateMutability": "view",
      "type": "function",
      "constant": true
    },
    {
      "inputs": [
        {
          "internalType": "uint256",
          "name": "",
          "type": "uint256"
        }
      ],
      "name": "events",
      "outputs": [
        {
          "internalType": "uint256",
          "name": "id",
          "type": "uint256"
        },
        {
          "internalType": "string",
          "name": "name",
          "type": "string"
        },
        {
          "internalType": "uint256",
          "name": "year",
          "type": "uint256"
        },
        {
          "internalType": "string",
          "name": "organiserName",
          "type": "string"
        }
      ],
      "stateMutability": "view",
      "type": "function",
      "constant": true
    },
    {
      "inputs": [],
      "name": "getEvents",
      "outputs": [
        {
          "components": [
            {
              "internalType": "uint256",
              "name": "id",
              "type": "uint256"
            },
            {
              "internalType": "string",
              "name": "name",
              "type": "string"
            },
            {
              "internalType": "uint256",
              "name": "year",
              "type": "uint256"
            },
            {
              "internalType": "string",
              "name": "organiserName",
              "type": "string"
            }
          ],
          "internalType": "struct Event.parsecEvent[]",
          "name": "",
          "type": "tuple[]"
        }
      ],
      "stateMutability": "view",
      "type": "function",
      "constant": true
    },
    {
      "inputs": [],
      "name": "iitdh",
      "outputs": [
        {
          "internalType": "address payable",
          "name": "",
          "type": "address"
        }
      ],
      "stateMutability": "view",
      "type": "function",
      "constant": true
    },
    {
      "inputs": [
        {
          "internalType": "address",
          "name": "",
          "type": "address"
        },
        {
          "internalType": "uint256",
          "name": "",
          "type": "uint256"
        }
      ],
      "name": "sponsorsContributions",
      "outputs": [
        {
          "internalType": "uint256",
          "name": "",
          "type": "uint256"
        }
      ],
      "stateMutability": "view",
      "type": "function",
      "constant": true
    },
    {
      "inputs": [
        {
          "internalType": "address",
          "name": "_account",
          "type": "address"
        },
        {
          "internalType": "uint256",
          "name": "_eventID",
          "type": "uint256"
        },
        {
          "internalType": "uint256",
          "name": "_amount",
          "type": "uint256"
        }
      ],
      "name": "sponsorThis",
      "outputs": [],
      "stateMutability": "payable",
      "type": "function",
      "payable": true
    },
    {
      "inputs": [
        {
          "internalType": "address payable",
          "name": "_recvAddr",
          "type": "address"
        },
        {
          "internalType": "uint256",
          "name": "_amount",
          "type": "uint256"
        }
      ],
      "name": "payIITDh",
      "outputs": [],
      "stateMutability": "payable",
      "type": "function",
      "payable": true
    },
    {
      "inputs": [
        {
          "internalType": "address",
          "name": "_account",
          "type": "address"
        }
      ],
      "name": "gettransactionHistory",
      "outputs": [
        {
          "components": [
            {
              "internalType": "uint256",
              "name": "id",
              "type": "uint256"
            },
            {
              "internalType": "string",
              "name": "name",
              "type": "string"
            },
            {
              "internalType": "uint256",
              "name": "year",
              "type": "uint256"
            },
            {
              "internalType": "string",
              "name": "organiserName",
              "type": "string"
            }
          ],
          "internalType": "struct Event.parsecEvent[]",
          "name": "",
          "type": "tuple[]"
        }
      ],
      "stateMutability": "view",
      "type": "function",
      "constant": true
    }
  ],
  "bytecode": "0x6080604052600060015534801561001557600080fd5b50336000806101000a81548173ffffffffffffffffffffffffffffffffffffffff021916908373ffffffffffffffffffffffffffffffffffffffff1602179055506115cf806100656000396000f3fe6080604052600436106100865760003560e01c80634c6c5b58116100595780634c6c5b581461015e578063838442571461017a578063c3d24bfc146101a3578063c9b1211b146101e0578063d3eed4a21461021f57610086565b8063097430561461008b5780630b791430146100c85780631ac097a714610108578063404aa8f914610133575b600080fd5b34801561009757600080fd5b506100b260048036038101906100ad9190610b86565b61023b565b6040516100bf9190610bd5565b60405180910390f35b3480156100d457600080fd5b506100ef60048036038101906100ea9190610bf0565b61026c565b6040516100ff9493929190610cad565b60405180910390f35b34801561011457600080fd5b5061011d6103bc565b60405161012a9190610d21565b60405180910390f35b34801561013f57600080fd5b506101486103e0565b6040516101559190610ec1565b60405180910390f35b61017860048036038101906101739190610ee3565b610577565b005b34801561018657600080fd5b506101a1600480360381019061019c919061106b565b6106e0565b005b3480156101af57600080fd5b506101ca60048036038101906101c591906110f6565b6107e5565b6040516101d79190610ec1565b60405180910390f35b3480156101ec57600080fd5b5061020760048036038101906102029190611123565b610a30565b60405161021693929190611172565b60405180910390f35b610239600480360381019061023491906111d5565b610a97565b005b6005602052816000526040600020818154811061025757600080fd5b90600052602060002001600091509150505481565b6002818154811061027c57600080fd5b90600052602060002090600402016000915090508060000154908060010180546102a590611244565b80601f01602080910402602001604051908101604052809291908181526020018280546102d190611244565b801561031e5780601f106102f35761010080835404028352916020019161031e565b820191906000526020600020905b81548152906001019060200180831161030157829003601f168201915b50505050509080600201549080600301805461033990611244565b80601f016020809104026020016040519081016040528092919081815260200182805461036590611244565b80156103b25780601f10610387576101008083540402835291602001916103b2565b820191906000526020600020905b81548152906001019060200180831161039557829003601f168201915b5050505050905084565b60008054906101000a900473ffffffffffffffffffffffffffffffffffffffff1681565b60606002805480602002602001604051908101604052809291908181526020016000905b8282101561056e57838290600052602060002090600402016040518060800160405290816000820154815260200160018201805461044190611244565b80601f016020809104026020016040519081016040528092919081815260200182805461046d90611244565b80156104ba5780601f1061048f576101008083540402835291602001916104ba565b820191906000526020600020905b81548152906001019060200180831161049d57829003601f168201915b50505050508152602001600282015481526020016003820180546104dd90611244565b80601f016020809104026020016040519081016040528092919081815260200182805461050990611244565b80156105565780601f1061052b57610100808354040283529160200191610556565b820191906000526020600020905b81548152906001019060200180831161053957829003601f168201915b50505050508152505081526020019060010190610404565b50505050905090565b61057f610ad5565b6004600083815260200190815260200160002060405180606001604052808573ffffffffffffffffffffffffffffffffffffffff168152602001600354815260200183815250908060018154018082558091505060019003906000526020600020906003020160009091909190915060008201518160000160006101000a81548173ffffffffffffffffffffffffffffffffffffffff021916908373ffffffffffffffffffffffffffffffffffffffff16021790555060208201518160010155604082015181600201555050600560008473ffffffffffffffffffffffffffffffffffffffff1673ffffffffffffffffffffffffffffffffffffffff1681526020019081526020016000208290806001815401808255809150506001900390600052602060002001600090919091909150556106db60008054906101000a900473ffffffffffffffffffffffffffffffffffffffff1682610a97565b505050565b3373ffffffffffffffffffffffffffffffffffffffff1660008054906101000a900473ffffffffffffffffffffffffffffffffffffffff1673ffffffffffffffffffffffffffffffffffffffff161461073857600080fd5b6001600081548092919061074b906112a4565b91905055506002604051806080016040528060015481526020018581526020018481526020018381525090806001815401808255809150506001900390600052602060002090600402016000909190919091506000820151816000015560208201518160010190816107bd9190611498565b506040820151816002015560608201518160030190816107dd9190611498565b505050505050565b60608060005b600560008573ffffffffffffffffffffffffffffffffffffffff1673ffffffffffffffffffffffffffffffffffffffff16815260200190815260200160002080549050811015610a26576002600560008673ffffffffffffffffffffffffffffffffffffffff1673ffffffffffffffffffffffffffffffffffffffff16815260200190815260200160002082815481106108885761088761156a565b5b9060005260206000200154815481106108a4576108a361156a565b5b9060005260206000209060040201604051806080016040529081600082015481526020016001820180546108d790611244565b80601f016020809104026020016040519081016040528092919081815260200182805461090390611244565b80156109505780601f1061092557610100808354040283529160200191610950565b820191906000526020600020905b81548152906001019060200180831161093357829003601f168201915b505050505081526020016002820154815260200160038201805461097390611244565b80601f016020809104026020016040519081016040528092919081815260200182805461099f90611244565b80156109ec5780601f106109c1576101008083540402835291602001916109ec565b820191906000526020600020905b8154815290600101906020018083116109cf57829003601f168201915b505050505081525050828281518110610a0857610a0761156a565b5b60200260200101819052508080610a1e906112a4565b9150506107eb565b5080915050919050565b60046020528160005260406000208181548110610a4c57600080fd5b9060005260206000209060030201600091509150508060000160009054906101000a900473ffffffffffffffffffffffffffffffffffffffff16908060010154908060020154905083565b60008273ffffffffffffffffffffffffffffffffffffffff166108fc839081150290604051600060405180830381858888f193505050509050505050565b42600381905550565b6000604051905090565b600080fd5b600080fd5b600073ffffffffffffffffffffffffffffffffffffffff82169050919050565b6000610b1d82610af2565b9050919050565b610b2d81610b12565b8114610b3857600080fd5b50565b600081359050610b4a81610b24565b92915050565b6000819050919050565b610b6381610b50565b8114610b6e57600080fd5b50565b600081359050610b8081610b5a565b92915050565b60008060408385031215610b9d57610b9c610ae8565b5b6000610bab85828601610b3b565b9250506020610bbc85828601610b71565b9150509250929050565b610bcf81610b50565b82525050565b6000602082019050610bea6000830184610bc6565b92915050565b600060208284031215610c0657610c05610ae8565b5b6000610c1484828501610b71565b91505092915050565b600081519050919050565b600082825260208201905092915050565b60005b83811015610c57578082015181840152602081019050610c3c565b60008484015250505050565b6000601f19601f8301169050919050565b6000610c7f82610c1d565b610c898185610c28565b9350610c99818560208601610c39565b610ca281610c63565b840191505092915050565b6000608082019050610cc26000830187610bc6565b8181036020830152610cd48186610c74565b9050610ce36040830185610bc6565b8181036060830152610cf58184610c74565b905095945050505050565b6000610d0b82610af2565b9050919050565b610d1b81610d00565b82525050565b6000602082019050610d366000830184610d12565b92915050565b600081519050919050565b600082825260208201905092915050565b6000819050602082019050919050565b610d7181610b50565b82525050565b600082825260208201905092915050565b6000610d9382610c1d565b610d9d8185610d77565b9350610dad818560208601610c39565b610db681610c63565b840191505092915050565b6000608083016000830151610dd96000860182610d68565b5060208301518482036020860152610df18282610d88565b9150506040830151610e066040860182610d68565b5060608301518482036060860152610e1e8282610d88565b9150508091505092915050565b6000610e378383610dc1565b905092915050565b6000602082019050919050565b6000610e5782610d3c565b610e618185610d47565b935083602082028501610e7385610d58565b8060005b85811015610eaf5784840389528151610e908582610e2b565b9450610e9b83610e3f565b925060208a01995050600181019050610e77565b50829750879550505050505092915050565b60006020820190508181036000830152610edb8184610e4c565b905092915050565b600080600060608486031215610efc57610efb610ae8565b5b6000610f0a86828701610b3b565b9350506020610f1b86828701610b71565b9250506040610f2c86828701610b71565b9150509250925092565b600080fd5b600080fd5b7f4e487b7100000000000000000000000000000000000000000000000000000000600052604160045260246000fd5b610f7882610c63565b810181811067ffffffffffffffff82111715610f9757610f96610f40565b5b80604052505050565b6000610faa610ade565b9050610fb68282610f6f565b919050565b600067ffffffffffffffff821115610fd657610fd5610f40565b5b610fdf82610c63565b9050602081019050919050565b82818337600083830152505050565b600061100e61100984610fbb565b610fa0565b90508281526020810184848401111561102a57611029610f3b565b5b611035848285610fec565b509392505050565b600082601f83011261105257611051610f36565b5b8135611062848260208601610ffb565b91505092915050565b60008060006060848603121561108457611083610ae8565b5b600084013567ffffffffffffffff8111156110a2576110a1610aed565b5b6110ae8682870161103d565b93505060206110bf86828701610b71565b925050604084013567ffffffffffffffff8111156110e0576110df610aed565b5b6110ec8682870161103d565b9150509250925092565b60006020828403121561110c5761110b610ae8565b5b600061111a84828501610b3b565b91505092915050565b6000806040838503121561113a57611139610ae8565b5b600061114885828601610b71565b925050602061115985828601610b71565b9150509250929050565b61116c81610b12565b82525050565b60006060820190506111876000830186611163565b6111946020830185610bc6565b6111a16040830184610bc6565b949350505050565b6111b281610d00565b81146111bd57600080fd5b50565b6000813590506111cf816111a9565b92915050565b600080604083850312156111ec576111eb610ae8565b5b60006111fa858286016111c0565b925050602061120b85828601610b71565b9150509250929050565b7f4e487b7100000000000000000000000000000000000000000000000000000000600052602260045260246000fd5b6000600282049050600182168061125c57607f821691505b60208210810361126f5761126e611215565b5b50919050565b7f4e487b7100000000000000000000000000000000000000000000000000000000600052601160045260246000fd5b60006112af82610b50565b91507fffffffffffffffffffffffffffffffffffffffffffffffffffffffffffffffff82036112e1576112e0611275565b5b600182019050919050565b60008190508160005260206000209050919050565b60006020601f8301049050919050565b600082821b905092915050565b60006008830261134e7fffffffffffffffffffffffffffffffffffffffffffffffffffffffffffffffff82611311565b6113588683611311565b95508019841693508086168417925050509392505050565b6000819050919050565b600061139561139061138b84610b50565b611370565b610b50565b9050919050565b6000819050919050565b6113af8361137a565b6113c36113bb8261139c565b84845461131e565b825550505050565b600090565b6113d86113cb565b6113e38184846113a6565b505050565b5b81811015611407576113fc6000826113d0565b6001810190506113e9565b5050565b601f82111561144c5761141d816112ec565b61142684611301565b81016020851015611435578190505b61144961144185611301565b8301826113e8565b50505b505050565b600082821c905092915050565b600061146f60001984600802611451565b1980831691505092915050565b6000611488838361145e565b9150826002028217905092915050565b6114a182610c1d565b67ffffffffffffffff8111156114ba576114b9610f40565b5b6114c48254611244565b6114cf82828561140b565b600060209050601f83116001811461150257600084156114f0578287015190505b6114fa858261147c565b865550611562565b601f198416611510866112ec565b60005b8281101561153857848901518255600182019150602085019450602081019050611513565b868310156115555784890151611551601f89168261145e565b8355505b6001600288020188555050505b505050505050565b7f4e487b7100000000000000000000000000000000000000000000000000000000600052603260045260246000fdfea264697066735822122012dc9d911b83330218231d30f74d331ece49c10a8e2c7289dda3f3d813c5339a64736f6c63430008130033",
  "immutableReferences": {},
  "source": "//SPDX-License-Identifier: MIT\npragma solidity ^0.8.0;\n\nimport {Event} from \"./Event.sol\";\n\n//sponsor - sendMoney, avalaibleBalance, transactionHistory\ncontract funds is Event {\n    // Each fund needs a sponsor, a timestamp, and amount funded.\n    struct Funds {\n        address sponsor;\n        uint timestamp;\n        uint amount;\n    }\n\n    // Set `lastUpdated` to `now`\n    uint lastUpdated;\n\n    function updateTimestamp() private {\n        lastUpdated = block.timestamp;\n    }\n\n    // event id to all funds it got\n    mapping(uint => Funds[]) public eventSponsors;\n\n    //sponsor contributed to which events (IDs) funded\n    mapping(address => uint[]) public sponsorsContributions;\n\n    //update the maps and pay the money\n    function sponsorThis(\n        address _account,\n        uint _eventID,\n        uint _amount\n    ) public payable {\n        updateTimestamp();\n        eventSponsors[_eventID].push(Funds(_account, lastUpdated, _amount));\n        sponsorsContributions[_account].push(_eventID);\n        payIITDh(iitdh, _amount);\n    }\n\n    function payIITDh(address payable _recvAddr, uint _amount) public payable {\n        bool sent = _recvAddr.send(_amount);\n        if (sent) {}\n        //require(sent, \"Failed to send Ether\");\n        // payable(iitdh).transfer(_amount);\n    }\n\n    //all events funded by one sponsor\n    function gettransactionHistory(\n        address _account\n    ) public view returns (parsecEvent[] memory) {\n        parsecEvent[] memory myFundedEvents;\n        for (uint i = 0; i < sponsorsContributions[_account].length; i++) {\n            myFundedEvents[i] = events[sponsorsContributions[_account][i]];\n        }\n        return myFundedEvents;\n    }\n}\n",
  "sourcePath": "D:\\Programs\\xampp\\htdocs\\GitHub\\parsecfunds\\src\\contracts\\funds.sol",
  "compiler": {
    "name": "solc",
    "version": "0.8.19+commit.7dd6d404.Emscripten.clang"
  },
  "schemaVersion": "3.4.13",
  "updatedAt": "2023-04-06T02:38:36.861Z",
  "networkType": "ethereum",
  "devdoc": {
    "kind": "dev",
    "methods": {},
    "version": 1
  },
  "userdoc": {
    "kind": "user",
    "methods": {},
    "version": 1
  }
}